:020000040800F2
:100000000090002041070008290500082B05000882
:1000100000000000000000000000000000000000E0
:100020000000000000000000000000002D05000896
:1000300000000000000000002F0500083105000846
:1000400091070008000000009107000891070008D0
:100050009107000891070008910700089107000820
:100060000000000039050008490500089107000854
:1000700091070008910700089107000800000000A0
:1000800091070008910700089107000891070008F0
:1000900091070008910700089107000891070008E0
:1000A000910700089107000891070008590500080A
:0800B000910700089107000808
:1000B80010B5064C2378002B07D1054B002B02D036
:1000C800044800E000BF0123237010BD3C04002059
:1000D80000000000EC260008044B10B5002B03D0EC
:1000E8000349044800E000BF10BDC04600000000FE
:1000F80040040020EC260008002243088B4274D3F9
:1001080003098B425FD3030A8B4244D3030B8B4210
:1001180028D3030C8B420DD3FF22090212BA030C19
:100128008B4202D31212090265D0030B8B4219D3FA
:1001380000E0090AC30B8B4201D3CB03C01A52411A
:10014800830B8B4201D38B03C01A5241430B8B4262
:1001580001D34B03C01A5241030B8B4201D30B034B
:10016800C01A5241C30A8B4201D3CB02C01A524172
:10017800830A8B4201D38B02C01A5241430A8B4235
:1001880001D34B02C01A5241030A8B4201D30B021E
:10019800C01A5241CDD2C3098B4201D3CB01C01A38
:1001A800524183098B4201D38B01C01A5241430942
:1001B8008B4201D34B01C01A524103098B4201D330
:1001C8000B01C01A5241C3088B4201D3CB00C01A9D
:1001D800524183088B4201D38B00C01A5241430815
:1001E8008B4201D34B00C01A5241411A00D201463A
:1001F800524110467047FFE701B5002000F0F0F8C3
:1002080002BDC0460029F7D076E7704703460B4386
:100218007FD4002243088B4274D303098B425FD3F7
:10022800030A8B4244D3030B8B4228D3030C8B4223
:100238000DD3FF22090212BA030C8B4202D3121209
:10024800090265D0030B8B4219D300E0090AC30BDE
:100258008B4201D3CB03C01A5241830B8B4201D38B
:100268008B03C01A5241430B8B4201D34B03C01A74
:100278005241030B8B4201D30B03C01A5241C30AEC
:100288008B4201D3CB02C01A5241830A8B4201D35D
:100298008B02C01A5241430A8B4201D34B02C01A47
:1002A8005241030A8B4201D30B02C01A5241CDD2EC
:1002B800C3098B4201D3CB01C01A524183098B4237
:1002C80001D38B01C01A524143098B4201D34B0120
:1002D800C01A524103098B4201D30B01C01A524183
:1002E800C3088B4201D3CB00C01A524183088B420A
:1002F80001D38B00C01A524143088B4201D34B00F3
:10030800C01A5241411A00D2014652411046704764
:100318005DE0CA0F00D04942031000D34042534069
:1003280000229C4603098B422DD3030A8B4212D329
:10033800FC22890112BA030A8B420CD3890192115B
:100348008B4208D3890192118B4204D389013AD098
:10035800921100E08909C3098B4201D3CB01C01A6D
:10036800524183098B4201D38B01C01A5241430980
:100378008B4201D34B01C01A524103098B4201D36E
:100388000B01C01A5241C3088B4201D3CB00C01ADB
:10039800524183088B4201D38B00C01A5241D9D2F3
:1003A80043088B4201D34B00C01A5241411A00D274
:1003B8000146634652415B10104601D34042002B70
:1003C80000D54942704763465B1000D3404201B5EF
:1003D800002000F005F802BD0029F8D016E77047A4
:1003E8007047C04600B583B00D4A916B012319438D
:1003F8009163926B13400193019B00220021092015
:1004080000F022FA092000F04FFA002200210A2009
:1004180000F01AFA0A2000F047FA03B000BDC046FF
:100428000010024082B0094B596B042211435963F2
:10043800596B0A400092009A596B01221143596383
:100448005B6B1A400192019B02B07047001002409A
:1004580072B6FEE700B593B03422002105A802F079
:100468006BF81022002101A802F066F880208000B5
:1004780000F0E0FC02230593FE3308930023099360
:1004880040220A920C9305A800F0FEFC00280DD12A
:10049800072301930023029303930493002101A8E7
:1004A80000F0A0FF002803D113B000BDFFF7D0FF74
:1004B800FFF7CEFF10B500F095F9FFF7CBFFFFF778
:1004C800B1FFFFF78FFF00F065F805480268136871
:1004D80010210B4313601822024901F03FFFFEE789
:1004E800280500205804002000B583B00B4B196C78
:1004F800012211431964196C0A400092009ADA6BC0
:10050800802149050A43DA63DB6B0B400193019BA9
:10051800C020C00000F08CF903B000BD00100240FC
:10052800FEE7FEE77047704710B500F06FF910BDA1
:1005380010B5024800F05AFB10BDC04670040020F8
:1005480010B5024800F052FB10BDC046CC04002094
:1005580010B50D4C200001F06FFA2368DA69D20655
:1005680000D410BD10221A62074C200001F090F947
:10057800064B1B685B68DBB21821C91AC9B2200098
:1005880000F0C4F8EDE7C0462805002070040020FC
:100598007047000010B51948194B036096239B015A
:1005A800436000238360C36003610C22426183615E
:1005B800C36103624362836201F03EFE002811D1E9
:1005C80000210E4801F048FF00280ED100210B48F9
:1005D80001F068FF00280BD1084801F01DFF002832
:1005E80009D110BDFFF734FFEAE7FFF731FFEDE768
:1005F800FFF72EFFF0E7FFF72BFFF2E728050020B3
:100608000038014030B58FB004001422002109A839
:1006180001F092FF1C22002102A801F08DFF344B4B
:1006280022689A4201D00FB030BD0123029302A87C
:1006380000F0B8FF002851D12E4B196C8020C00162
:10064800014319641A6C02400092009A596B042203
:10065800114359635B6B1A400192019B3023099344
:100668002E3B0A9300250B950C95013B0D9309A988
:10067800214800F023FB2148214B036032234360CB
:100688008560C5604E33036145618561C56105625A
:1006980000F086F9002824D18022184BA3509C62D0
:1006A8001848194B036033234360233B83600023BE
:1006B800C360026143618361C361036200F070F942
:1006C800002811D10F4BE3679C62002200211B20F8
:1006D80000F0BAF81B2000F0E7F8A4E7FFF7B8FE2F
:1006E800AAE7FFF7B5FED7E7FFF7B2FEEAE7C0468D
:1006F800003801400010024000080050700400203B
:1007080008000240CC0400201C00024070B5084BD1
:10071800834200D070BD8AB2064D1C002900180023
:1007280001F058F818222900200001F017FEF1E71F
:1007380028050020580400200D488546FFF728FFAB
:100748000C480D490D4A002302E0D458C450043324
:10075800C4188C42F9D30A4A0A4C002301E01360FA
:100768000432A242FBD301F0C5FEFFF7A3FEFEE769
:1007780000900020000000203C0400209C27000876
:100788003C040020C4050020FEE7000010B504006A
:10079800114B1978002901D1012010BDFA208000E1
:1007A800FFF7AAFC01000D4B1868FFF7A5FC00F045
:1007B80087F800280DD1032C01D90120EDE701307D
:1007C80000222100404200F03FF8054B1C60002049
:1007D800E3E70120E1E7C046040000200000002014
:1007E8000800002010B5084A116880235B000B43FD
:1007F80013600320FFF7CAFF041E02D00124200063
:1008080010BDFFF771FEFAE700200240034B1B788A
:10081800034A11685B1813607047C0460400002043
:10082800BC050020014B18687047C046BC05002075
:10083800034A136803490B40034313607047C046DB
:1008480000000140FFF9FFFF70B5002811DB8308A5
:10085800134EC0339B009D5903242040C000FF2243
:1008680014008440A54389010A4082402A439A51D2
:1008780070BD0F230340083B9B0806339B00094AC1
:10088800944663445C6803221040C000FC321500A3
:100898008540AC4389010A40824022435A60E7E719
:1008A80000E100E000ED00E0002805DB1F23184010
:1008B8001E3B8340014A13607047C04600E100E0D8
:1008C800013880235B0498420FD2094A50600948D6
:1008D800036A1B021B0AC02109060B43036200239B
:1008E800936007331360002070470120FCE7C0467F
:1008F80010E000E000ED00E0F0B5846CC56C6560C8
:10090800046D002C02D0446D856D65600B4F7C68CA
:100918001C26056C2E400125B5402C437C600468DC
:1009280063608368102B04D0036899600368DA60F9
:10093800F0BD03689A600368D960F9E700000240D7
:1009480010B50400036C9B08094A944663449B0055
:100958004364FF202368184008381421FFF7CCFBB4
:10096800044BA3641F2318401E3B8340E36410BD5F
:1009780000820010800802403F2342681340064A64
:100988009A1892000265054A4265013B03221A4003
:1009980001239340836570473F820010400902405D
:1009A80070B5041E4DD00568274BE8181421FFF7D1
:1009B800A3FB8000206425230222E2542B68234AEB
:1009C80013402B6021680A68A368E0680343206924
:1009D800034360690343A0690343E0690343206A52
:1009E800034313430B602000FFF7AAFF8023DB01BA
:1009F800A2689A4218D0626C3F2361680B4013606A
:100A0800A36CE26C5A606368013B032B0FD9002387
:100A180023656365A3650023E36325220121A154AF
:100A2800013AA354002070BD00236360E3E720006F
:100A3800FFF7A2FF236D00221A60636DA26D5A6052
:100A4800E9E70120EFE7C046F8FFFDBF0F80FFFF91
:100A580070B504002420205C012845D024200125FD
:100A680025540130205C012806D08023E3635C3BD9
:100A78000022E254012070BD2430013525540020A5
:100A8800E063256828680126B04328602000FFF746
:100A980033FF236B002B1CD0226813680E210B43F5
:100AA8001360636C1A68D20304D519688022520057
:100AB8000A431A60236D002B04D019688022520063
:100AC8000A431A602268136801210B43136000204F
:100AD800D1E72268136804218B43136022681368E6
:100AE80006310B431360DCE70220C4E730B5002869
:100AF80036D02523C35C022B06D00423C3632033DE
:100B08000022C254012030BD026813680E218B43B5
:100B18001360426C136813490B40136001680A683C
:100B280001239A430A60104C62681C21056C294015
:100B38008B4013436360836CC26C5A60036D002B57
:100B480006D01A6807490A401A60436D826D5A60D8
:100B580025230122C254013B0022C2540020D2E7BF
:100B68000120D0E7FFFEFFFF0000024070B52523FB
:100B7800C35C022B03D00423C363012070BD026849
:100B880013680E218B43136001680A6801239A4396
:100B98000A60416C0A68134C22400A60124C626871
:100BA8001C21056C29408B4013436360836CC26C25
:100BB8005A60036D002B06D01A680A490A401A6069
:100BC800436D826D5A6025230122C254013B0022E5
:100BD800C254836B002B02D098470020CEE7002038
:100BE800CCE7C046FFFEFFFF0000024070B5314B66
:100BF8001968046825681C23026C134004229A4073
:100C0800114216D06A0714D523689B0603D42368BB
:100C1800042293432360274C63681C21026C114013
:100C280004228A4013436360036B002B00D098476B
:100C380070BD02229A4011421CD0AA071AD5236817
:100C48009B0606D423680A22934323602523093A86
:100C5800C254184C63681C21026C114002228A405D
:100C68001343636024230022C254C36A002BDFD0DD
:100C78009847DDE708229A401142D9D02B07D7D5EB
:100C880023680E22934323600A4C62681C21036C7C
:100C9800194001231D008D402A436260C363252249
:100CA800835423330022C254436B002BC0D098478F
:100CB800BEE7C04600000240C06B7047F0B5002395
:100CC8005AE084685F000326BE40B4432600CC681F
:100CD800BC4034438460446894434A68160901223E
:100CE80032409A402243426056E0DC080834A400AF
:100CF800265805321A4092000F279740BE430F69C5
:100D080097403A00324322505AE0032600E000267A
:100D1800A64034003C43434E183292009451346844
:100D2800EA432600AE434F68FF0201D52C43260054
:100D38003C4C26606468260016404F68BF0201D507
:100D48002C432600374C66608426A459260016409A
:100D58004F68BF0301D52C432600324C8427E65147
:100D68008026A45922404E68F60301D52A00224362
:100D78002C4D80242A5101330C682200DA404FD0D0
:100D880001229A40250015401442F4D003244E68ED
:100D98003440013C012C94D903224C682240032A98
:100DA80009D0C2685E000324B440A24314008A68D4
:100DB800B2402243C26003224C682240022A94D0E7
:100DC80004685E0003221700B740BC434F683A40EE
:100DD800B24022430260C02292024C681442CAD038
:100DE8009A0814001834A4000E4EA75903241C4076
:100DF800E4000F26A640B743A026F605B04286D0E9
:100E0800094EB04208D0094EB04207D0084EB04251
:100E180000D17AE705267BE7012679E7022677E7FE
:100E2800F0BDC04600180240000400500008005001
:100E3800000C005010B5104A136810490B400343CA
:100E4800136080239B00984201D0002010BD0C4BFA
:100E58001B685800C01840000A49FFF74DF90130D7
:100E6800054B5B695B0503D5002803D00138F7E71C
:100E78000020EBE70320E9E700700040FFF9FFFFDF
:100E88000000002040420F0070B582B0041E00D15F
:100E980029E20368DB0739D5C14A916838230B403A
:100EA800D16803220A40102B26D0082B26D063686D
:100EB8008022520293427FD0A022D202934200D1D4
:100EC80081E0B74B1A68B7490A401A601A68B649F0
:100ED8000A401A606368002B00D180E0FFF7A2FC8B
:100EE8000500AF4B1B689B0310D4FFF79BFC401B0E
:100EF8006428F6D90320F7E1032AD6D1A84B1B684A
:100F08009B0303D56368002B00D1EFE123689B079F
:100F180031D5A34A936838210B40D16803220A408F
:100F2800102B6AD0002B6BD19D4A1268520503D54D
:100F3800E268002A00D1DBE1994842689B490A40EF
:100F4800616909020A434260002B0DD10368984980
:100F58000B4021690B4303600368DB0A07221A4030
:100F6800944BD340944A1360944B1868FFF70EFCD7
:100F7800002800D0BEE123681B0700D481E0884B1D
:100F88009A6838231340182B73D0A369002B00D11B
:100F9800B4E0834A136E01210B431366FFF742FC4A
:100FA80005007F4B1B6E9B076BD4FFF73BFC401B78
:100FB8000228F6D9032097E1794A116880235B0259
:100FC8000B43136086E7764B19688022D2020A43E6
:100FD8001A601968802252020A431A607AE7FFF7FA
:100FE80021FC05006E4B1B689B038FD5FFF71AFC8D
:100FF800401B6428F6D9032076E1022A92D193E7B0
:10100800E368002B22D0664A136869490B402169BE
:101018000B431360116880235B000B431360FFF7D9
:1010280001FC05005E4B1B685B0506D4FFF7FAFB65
:10103800401B0228F6D9032056E159494B685B4A00
:1010480013406269120213434B6094E7544A1368D1
:101058005B490B401360FFF7E5FB0500504B1B682D
:101068005B0588D5FFF7DEFB401B0228F6D9032075
:101078003AE14B4B1B6E9B0703D5A369002B00D1AC
:101088003AE123685B0700D4A2E0454B9A6838230D
:101098001340202B45D0424BDB6BDB004AD4404A3F
:1010A800D16B802040050143D163D36B034001938A
:1010B800019B0125434B1B68DB053DD5A368012B2C
:1010C8004ED0052B52D0364BDA6D01218A43DA65B2
:1010D800DA6D03318A43DA65A368002B50D0FFF735
:1010E800A1FB06002E4BDB6D9B076FD4FFF79AFB25
:1010F800801B354B9842F5D90320F5E0284A136E3A
:1011080001218B431366FFF78DFB0500244B1B6EF3
:101118009B07B6D5FFF786FB401B0228F6D90320AC
:10112800E2E01F4BDB6D9B0752D5A368002B4FD124
:101138000120D9E00025BDE7224A116880235B0021
:101148000B431360FFF76EFB06001E4B1B68DB05A5
:10115800B4D4FFF767FB801B0228F6D90320C3E04D
:101168000F4AD36D01210B43D365B5E70C4BDA6DFC
:1011780004210A43DA65DA6D03390A43DA65ABE715
:10118800FFF750FB0600064BDB6D9B071ED5FFF7EC
:1011980049FB801B0C4B9842F5D90320A4E0C046BC
:1011A80000100240FFFFFEFFFFFFFBFFFF80FFFF75
:1011B800FFC7FFFF0024F400000000200800002003
:1011C800FFFEFFFF0070004088130000012D1ED0B5
:1011D800E369002B00D191E04F4A916838220A4018
:1011E800102A5ED0022B18D04B4A13684B490B408B
:1011F8001360FFF717FB0400474B1B689B0149D599
:10120800FFF710FB001B0228F6D903206CE0424AC6
:10121800D36B43490B40D363DAE73F4A13683F492E
:101228000B401360FFF7FEFA05003B4B1B689B0160
:1012380006D5FFF7F7FA401B0228F6D9032053E03A
:10124800354AD36837491940236A606A0343A06A5C
:1012580000020343E06A0343206B03430B43D3605C
:10126800116880235B040B431360D16880235B05FE
:101278000B43D360FFF7D6FA0400274B1B689B018A
:1012880006D4FFF7CFFA001B0228F6D903202BE07B
:10129800002029E0204AD36823490B40D36000206E
:1012A80022E0012B2CD01C4BDA6803231340216A5F
:1012B8008B4227D170231340616A8B4224D1FE21CF
:1012C800C9011140A36A1B0299421FD1F8239B034D
:1012D8001340E16A8B421BD1520F5207236B9A428B
:1012E80018D1002000E0012002B070BD0120FBE70A
:1012F8000120F9E70120F7E70120F5E70020F3E7EF
:101308000120F1E70120EFE70120EDE70120EBE7FD
:101318000120E9E70120E7E700100240FFFFFFFE98
:10132800FFFFFFEF8C80C11FFCFFFEEF10B52A4BBB
:101338009B6838221A4207D1274B1A68D20A07231A
:1013480013402648D84010BD234B9A6838231340D1
:10135800082B3BD0204B9A6838231340102B0DD014
:101368001D4B9A6838231340202B31D01A4B9A68AA
:1013780038231340182B26D00020E4E7164AD168FA
:101388000D3B0B40D2681209072111400131032B94
:101398000FD01248FEF7B0FE0F4BDA68120A7F230F
:1013A800134058430C4BD968490F0131FEF7A4FE8E
:1013B800C9E70B48FEF7A0FE074BDA68120A7F233D
:1013C80013405843EEE7FA20C001BCE70448BAE7E7
:1013D80080200002B7E7C046001002400024F40055
:1013E80000127A0070B504000D00002800D1AAE0B0
:1013F800574B1A68072313408B4221D323689A0757
:101408000ED55B0705D5534A9168E023DB010B43F2
:101418009360504A936850490B40A1680B4393600E
:101428002368DB0754D56368012B20D0022B3BD0FF
:10143800002B3FD1474A126852051CD401206AE0AC
:10144800434A136807218B432B431360FFF7EAF9DC
:1014580006003F4B1A6807231340AB42CED0FFF774
:10146800E1F9801B3D4A9042F3D9032053E0394A01
:101478001268920369D537498A6807208243134363
:101488008B60FFF7CFF90600324B9B6838221A4071
:101498006368DB009A421BD0FFF7C4F9801B2F4B0F
:1014A8009842F1D9032036E02A4A12689201E2D420
:1014B800012030E0032B05D0264AD26D9207DAD4FA
:1014C800012028E0234A126E9207D4D4012022E09A
:1014D8001F4B1A6807231340AB421DD823685B07CC
:1014E80006D51C4A93681E490B40E1680B4393607C
:1014F800FFF71CFF174B9A68120A0F2313409B0033
:10150800184A9A581F231340D840174B1860174B96
:101518001868FFF73BF970BD0D4A136807218B4324
:101528002B431360FFF77EF90600094B1A6807235F
:101538001340AB42D2D0FFF775F9801B074B984296
:10154800F3D90320E7E70120E5E70120E3E7C046F8
:101558000020024000100240FFF0FFFF8813000047
:10156800FF8FFFFF0427000800000020080000206C
:10157800014B18687047C0460000002010B5FFF7FF
:10158800F7FF064B9A68120B072313409B00044A87
:101598009A581F231340D84010BDC046001002407F
:1015A80044270008F0B583B0040003689B0362D5A4
:1015B800584BDB6BDB001ED4564AD16B80204005AC
:1015C8000143D163D36B03400193019B0126524A27
:1015D800116880235B000B431360FFF723F90500B4
:1015E8004D4B1B68DB0508D4FFF71CF9401B02288C
:1015F800F6D9032502E00026E9E70025002D23D1CE
:10160800444BD96DC02292000B001340114210D0F8
:10161800A2699A420DD03F4AD36D40490B40D06D24
:10162800802149020143D165D16D3D480140D16512
:10163800D365DB0710D4002D06D1364AD36D374960
:101648000B40A1690B43D365012E15D1314AD36BE9
:1016580034490B40D3630FE0FFF7E4F807002D4B44
:10166800DB6D9B07E7D4FFF7DDF8C01B2E4B9842D4
:10167800F5D90325DFE700252368DB0706D5254ACA
:10168800536D03218B4361680B43536523689B07A4
:1016980006D5204A536D0C218B43A1680B43536533
:1016A80023689B0606D51B4A536D20490B40E16809
:1016B8000B43536523685B040BD5164A536D9B0097
:1016C8009B0861690B4353658023DB0562699A4275
:1016D80011D023681B050BD50E4A536D14490B40D6
:1016E80021690B43536522698023DB019A4209D0A3
:1016F800280003B0F0BD074AD16880235B020B4382
:10170800D360E6E7034AD16880235B020B43D360CA
:10171800EEE7C0460010024000700040FFFCFFFFEB
:10172800FFFFFEFFFFFFFFEF88130000FFCFFFFF63
:10173800FF3FFFFF30B5EFF31084012282F31088DA
:1017480001680B68C025AB430B6084F31088EFF386
:10175800108182F3108802689368044C23409360D8
:1017680081F3108888232022C25030BDFFFF7FFFFD
:1017780030B5EFF31084012282F3108801680B68FA
:10178800124D2B400B6084F31088EFF3108182F325
:101798001088026893680E4C2340936081F3108888
:1017A800C36E012B06D08C232022C2500023C366AF
:1017B800436730BDEFF3108183F310880268136824
:1017C8001024A343136081F31088ECE7DFFEFFFFCA
:1017D800FEFFFFEF10B50400130088228258202A6C
:1017E80049D1002949D0002B49D080225201806874
:1017F800904228D021655422A3520232A3523A3291
:101808000021A150083A2131A150E26F002A21D0CD
:101818001C49D162E26F1C491163E26F1B49516395
:10182800E26F0021916322682832216DE06FFFF793
:101838000FF900280ED090231022E250083B1032F6
:10184800E250012018E02269002AD3D1CA07D1D575
:10185800012011E0236840221A62EFF3108101236E
:1018680083F310882268936880200343936081F390
:101878001088002000E0022010BD0120FCE70120B4
:10188800FAE7C04651190008C7190008D719000817
:1018980070B504008823C2580433C55803689B6890
:1018A8001B0601D5212A07D023689B685B0648D50B
:1018B800222D22D0002045E0EFF31081012383F38D
:1018C80010880268936880208343936081F31088AE
:1018D800E06F002803D0FFF709F9002803D12000A2
:1018E800FFF728FFE0E7E06FFFF7E6F92028F6D1D9
:1018F80090231022E2501D3824E0EFF310810123D9
:1019080083F310882268936840208343936081F3AF
:1019180010888023E058002803D0FFF7E7F8002854
:1019280004D12000FFF724FF00200BE08023E058BB
:10193800FFF7C2F92028F4D190231022E2501D3875
:1019480000E0002070BD704710B50300806A1B6876
:101958001B689B061AD456230022C252EFF3108C40
:10196800013282F3108801688B688024A3438B605E
:101978008CF31088EFF3108182F3108802681368E3
:1019880040200343136081F3108810BDFFF7DBFF8D
:10199800FBE710B5EFF31081012383F31088026889
:1019A80013684024A343136081F3108888232022FE
:1019B800C25000238367FFF7C6FF10BD704710B5FC
:1019C800806AFFF7FBFF10BD70477047704770B51E
:1019D800846A8823E2580433E55823689B681B0609
:1019E80001D5212A0ED023689B685B0601D5222DDC
:1019F8000FD09022A35810210B43A3502000FFF7CB
:101A0800E5FF70BD56230022E2522000FFF792FE48
:101A1800E9E75E230022E2522000FFF7A9FEE8E78B
:101A280010B5806A00235E228352083A8352FFF77A
:101A3800CDFF10BD70470000F8B504000268D369F7
:101A480010689568BD491E000E400B4205D19906E5
:101A580003D581062CD4E9002AD4002E07D0B84932
:101A68002E000E400D4229D1B649084226D1E16E1A
:101A7800012900D1AAE0D90202D5690200D543E1C3
:101A88001A0605D5020600D545E12A0200D542E12D
:101A98005A0602D5420600D544E11A0202D5420090
:101AA80000D543E1DB0102D5002800DA42E1F8BDA8
:101AB800636F002BFBD020009847F8E7D90707D5BC
:101AC800C10505D501271762902162583A43625033
:101AD8009A0709D5EA0707D52268022111628E31D3
:101AE800625804273A4362505A0709D5EA0707D5CE
:101AF8002268042111628C31625802273A436250ED
:101B08001A070AD5820601D4002E06D022680826B4
:101B1800166290216258324362501A050AD5420172
:101B280008D5226880210901116290216258202677
:101B3800324362509022A258002AB8D09B0608D59A
:101B4800830601D4EB0004D5636F002B01D020007D
:101B580098479023E25823689B685B0602D42823A1
:101B680013422CD02000FFF703FE23689B685B0616
:101B780021D5EFF31081012383F31088226893683D
:101B880040208343936081F310888023E358002B1F
:101B98000DD06D4A9A638023E058FEF7E7FF0028CE
:101BA80000D184E78023E058836B98477FE72000C3
:101BB800FFF70CFF7BE72000FFF708FF77E720001F
:101BC800FFF704FF90230022E25070E7D90600D403
:101BD80051E7C10600D44EE71023136223689B68BF
:101BE8005B0655D58023E25813685B689BB2002BCF
:101BF80000D15CE75C21615A994200D857E75E2121
:101C0800635213681B689B060BD5022323675A335C
:101C1800E15A0233E35AC91A89B22000FFF70AFFD2
:101C280045E7EFF31080012383F3108821680A68E1
:101C3800464D2A400A6080F31088EFF3108083F342
:101C4800108821688A689A438A6080F31088EFF3C5
:101C5800108083F3108821688A684235FF35AA43CB
:101C68008A6080F310888C222021A1500022E2662D
:101C7800EFF3108183F310882268136810208343E0
:101C8800136081F310888023E058FEF72FFFBCE72C
:101C98005C23E15A0233E25A891A89B2E35A9BB2A9
:101CA800002B00D103E7002900D100E7EFF31085EE
:101CB800012383F3108820680268254E32400260B1
:101CC80085F31088EFF3108583F310882068826805
:101CD800204E3240826085F310888C222020A0504C
:101CE8000022E2666267EFF3108083F310882268AF
:101CF80013681025AB43136080F310880223236711
:101D08002000FFF797FED2E680235B0313622000D2
:101D180000F07EFBCBE6A36F002B00D1C7E62000C6
:101D28009847C4E62000FFF734FEC0E6200000F024
:101D380071FBBCE6200000F06CFBB8E60F08000061
:101D48000100001020010004291A0008FFFEFFFF0F
:101D5800DFFEFFFFFEFFFFEF10B5806A0123036778
:101D6800C36E012B02D0FFF730FE10BD5B33C15AA2
:101D78004908FFF75FFEF8E770B50300806A1B6843
:101D88001B689B0629D45E230022C252EFF31084FD
:101D98005D3B83F3108801680A681C4D2A400A607D
:101DA80084F31088EFF3108483F3108801688A683D
:101DB8009A438A6084F31088EFF3108183F31088C4
:101DC800026893684024A343936081F310888C23AE
:101DD8002022C250C36E012B07D000230367C36EB5
:101DE800012B0ED0FFF7F0FD70BDEFF3108183F3E8
:101DF800108802681368303CA343136081F310888D
:101E0800EBE75B33C15AFFF715FEEDE7FFFEFFFF77
:101E180010B5040083680269134342691343C26919
:101E2800134301680A686B48024013430B60226839
:101E3800536869490B40E1680B435360226AA36900
:101E48001A4321688B686548034013438B602268F6
:101E5800D36A0F218B43616A0B43D3622368604ABC
:101E680093420AD05F4A93423ED05F4A93425CD085
:101E78005E4A934249D010230BE05D4B5A6D032311
:101E88001340022B43D02BD8002B42D0012B42D138
:101E98000333E06980221202904248D0042B00D11B
:101EA80091E07AD8002B00D186E0022B73D15148FB
:101EB800636A5B00504A995AFEF71EF963685B082B
:101EC800C0186168FEF718F90200103A4B4B9A42A5
:101ED80000D97DE023680004000CD860002062E08F
:101EE800032B1AD10533D4E7414B5A6D0C23134009
:101EF800082B14D005D8002B13D0042BC9D01023DD
:101F0800C7E70C2B0FD1043BC3E70023C1E702232B
:101F1800BFE70023BDE71023BBE71023B9E702237F
:101F2800B7E70023B5E71023B3E70023B1E7042B95
:101F38002ED023D8002B25D0022B1DD12D48636A23
:101F48005B002D4A995AFEF7D7F8400063685B0892
:101F5800C0186168FEF7D0F80200103A274B9A4281
:101F680034D882B20F239A434008083B18401043E4
:101F78002368D860002016E0012014E0082BDED08A
:101F8800012010E0FFF7FAFA0028D8D100200AE073
:101F9800FFF7CCF9F8E7012005E0082B02D18020F3
:101FA800000285E7012001236A22A352023AA352C4
:101FB80000236367A36710BDFFF7E0FA002800D08D
:101FC80076E70020EFE7FFF7B1F9F7E70120EAE746
:101FD8000120E8E7F369FFCFFFCFFFFFFFF4FF1110
:101FE800003801400044004000480040004C0040D8
:101FF800001002400024F40064270008EFFF0000EE
:10200800836ADB0706D5026853682C490B40C16A0E
:102018000B435360836A9B0706D5026853682849B7
:102028000B40016B0B435360836A5B0706D502685C
:10203800536824490B40416B0B435360836A1B0769
:1020480006D50268536820490B40816B0B435360E7
:10205800836ADB0606D5026893681C490B40C16B8E
:102068000B439360836A9B0606D5026893681849F8
:102078000B40016C0B439360836A5B060BD50268C7
:10208800536814490B40416C0B43536080235B0336
:10209800426C9A420AD0836A1B0606D502685368C6
:1020A8000D490B40C16C0B4353607047026853687D
:1020B8000A490B40816C0B435360ECE7FFFFFDFFBF
:1020C800FFFFFEFFFFFFFBFFFF7FFFFFFFEFFFFFAD
:1020D800FFDFFFFFFFFFEFFFFFFFF7FFFFFF9FFFA0
:1020E800F8B5CE46474680B506000D00170099465C
:1020F800089B98463368DC692C40641B63425C414A
:10210800BC4257D143460133F4D0FEF78BFB4B4614
:10211800C01A40452ED84346002B2BD033681A6886
:102128005207E7D5DA691205E4D5802212011A624E
:10213800EFF31080012282F3108831680B68204C7D
:1021480023400B6080F31088EFF3108082F310882F
:1021580031688B6893438B6080F310882023873223
:10216800B3500432B3500432B35064330022F254F3
:10217800032020E0EFF31080012282F310883168F9
:102188000B680F4C23400B6080F31088EFF310802E
:1021980082F3108831688B6893438B6080F31088D2
:1021A80020238732B3500432B35064330022F254F0
:1021B800032000E00020C0BCB946B046F8BDC046C8
:1021C8005FFEFFFF30B583B0040090230022C250A9
:1021D800FEF728FB050022681268130710D423684D
:1021E8001B685B0719D420238822A3500432A3500C
:1021F8000023E3662367083AA354002003B030BDE8
:1022080080210C4B00930300002289032000FFF774
:1022180067FF0028E3D00320F0E78021054B0093F7
:102228002B000022C9032000FFF75AFF0028DAD04C
:102238000320E3E7FFFFFF0110B5041E30D0882319
:10224800C358002B22D088232422E2502268136826
:1022580001218B4313602000FFF7DAFD012814D019
:10226800A36A002B18D1226853680E490B405360AB
:10227800226893682A218B4393602268136829395E
:102288000B4313602000FFF79DFF10BD843300222D
:10229800C254FEF7B7F9D6E72000FFF7B1FEE2E730
:1022A8000120F2E7FFB7FFFF10B5040013008165B6
:1022B8005C228352343200218150043A2231815009
:1022C8000C3A8258002A13D02149D16280228158C1
:1022D80020480863A15820484863A1580020886313
:1022E80021682431A058A26DFEF7B2FB002826D140
:1022F8002369002B0BD0EFF31081012383F310889F
:1023080022681068FF330343136081F31088EFF3EA
:102318001080012383F3108821688A681A438A6031
:1023280080F31088EFF3108183F310882268936894
:1023380040200343936081F31088002010BD902350
:102348001022E250043B1032E2500120F6E7C0466A
:10235800811D0008611D0008D719000870B58C237D
:10236800C358202B23D1002923D0002A23D080232F
:102378005B0184689C4204D10369002B01D1CB071F
:102388001BD40023C36603685B681B020CD5EFF3FC
:10239800108C012383F31088046825688023DB04EC
:1023A8002B4323608CF31088FFF77EFF00E00220A8
:1023B80070BD0120FCE70120FAE70120F8E70000E2
:1023C800F8B50400436E002B05D101336A2283520D
:1023D800023A8352F8BD026895686D0E07231D40C6
:1023E8009268520F1340084FF85CC000074EF15C2A
:1023F800FDF70CFF6A23E052785DC000715DFDF7C0
:1024080005FF6823E052E5E7842700087C270008D9
:10241800704770477047000070B58423C35C012B78
:1024280015D08424012606558825242343510268A3
:1024380013681168B1431160064A134000224266CE
:1024480001680B60202343510255002070BD022013
:10245800FCE7C046FFFFFFDFF8B504000A0084234D
:10246800C35C012B1BD084250120605588262423BA
:10247800A35123681F68196881431960206883681D
:10248800DB00D908114381602000FFF799FF23681A
:102498001F602023A351002363550020F8BD0220AC
:1024A800FCE70000F8B504000B008422825C012AD6
:1024B8001BD084250120605588262422A251226839
:1024C80017681168814311602268916808480140C3
:1024D800194391602000FFF773FF23681F602023D2
:1024E800A351002363550020F8BD0220FCE7C04635
:1024F800FFFFFFF170B50C4D0C4E761BB61005D0E2
:10250800002408CD01349847A642FAD100F0EAF831
:10251800074D084E761BB61005D0002408CD0134AF
:102528009847A642FAD170BD902700089027000866
:102538009027000898270008F0B50500830749D0C0
:10254800541E002A45D003000326CAB202E0013512
:10255800013C3ED301332A703342F8D1032C30D9E1
:10256800FF220A40150215432A0415430F2C34D9BB
:102578002700103F3F093E01B4461E001A001036DE
:102588006644156055609560D5601032B242F8D146
:1025980001373F01DB190F270C22274022403C005E
:1025A800002A0ED03E1FB608B400A4461A001C1D0F
:1025B800644420C2A242FCD103240136B6009B1910
:1025C8003C40002C05D0C9B21C19197001339C423B
:1025D800FBD1F0BD03001400C0E72700E2E7C046C6
:1025E800034B10B5002B02D0024800F005F810BDCF
:1025F800000000001126000810B501000023002289
:10260800002000F019F810BD70B5074D074C641B89
:10261800A41005D0013CA300EB589847002CF9D131
:1026280000F066F870BDC046982700089C2700088F
:102638007047C0467047C046F0B5D6464F46464636
:10264800C0B5264F82B0060038689246984689463B
:10265800FFF7EEFF224B1B680193A423019A5B004E
:10266800D558002D2ED06C681F2C30DC002E0FD1D1
:10267800631C6B604B460234A40038686351FFF753
:10268800D9FF002002B0E0BCBA46B146A846F0BD6A
:10269800882251462800A300EB189950873AA24097
:1026A8008930FF30016811430160842140464900A8
:1026B8005850022EDCD12B008D33FF3319680A43A2
:1026C8001A60D5E715004D35FF35D550CBE738688A
:1026D800FFF7B0FF01204042D4E7C046380400208D
:1026E8008C270008F8B5C046F8BC08BC9E46704761
:0C26F800F8B5C046F8BC08BC9E46704710
:1027040000000000000000000000000000000000C5
:1027140000000000000000000000000000000000B5
:10272400010000000200000003000000040000009B
:102734000600000007000000080000000900000077
:102744000000000000000000000000000000000085
:10275400010000000200000003000000040000006B
:10276400010002000400060008000A000C0010002A
:102774002000400080000001080402040801010157
:0C2784000101010307010000100000200B
:08279000E9250008E100000842
:04279800B90000087C
:10279C000024F40001000000040000000000000010
:1027AC0000000000FC02002064030020CC03002089
:1027BC00000000000000000000000000000000000D
:1027CC0000000000000000000000000000000000FD
:1027DC0000000000000000000000000000000000ED
:1027EC0000000000000000000000000000000000DD
:1027FC0000000000000000000000000000000000CD
:10280C0000000000000000000000000000000000BC
:10281C0000000000000000000000000000000000AC
:10282C00000000000000000000000000000000009C
:10283C00000000000000000000000000000000008C
:10284C00000000000000000001000000000000007B
:10285C000E33CDAB34126DE6ECDE05000B00000040
:10286C00000000000000000000000000000000005C
:10287C00000000000000000000000000000000004C
:10288C00000000000000000000000000000000003C
:10289C00000000000000000000000000000000002C
:0C2BCC000000000000000000C005002018
:0400000508000741A7
:00000001FF
